:020000020000FC
:02000000A6C395
:1000E4003134372A323538303336392341424344A8
:1000F400100018D0A717E9F3A0E17031D1F3A72FAE
:10010400F0E0E4EEE70F70E0F71F749108950AD071
:100114007031E9F3A72FF0E0E4EEE70F70E0F71F8A
:100124007491089570E0A59A739800910201077F75
:1001340000930201009102010F7E0093020185E009
:100144007AD07D995EC073957C995BC073956499F0
:100154000C940301739565990C9403017395A59808
:10016400739A077F00930201009102010F7E0093AE
:10017400020185E060D07D9944C073957C9941C0AB
:10018400739564990C940301739565990C94030118
:100194007395A59873980091020108600093020179
:1001A400009102010F7E0093020185E044D07D9905
:1001B40028C073957C9925C0739564990C940301A8
:1001C400739565990C9403017395A59873980091A0
:1001D4000201077F00930201009102010061009374
:1001E400020185E028D07D990CC073957C9909C0E3
:1001F400739564990C940301739565990C940301A8
:100204007395089500000000000000000000000045
:10021400000000000895000000000000000000003D
:1002240000000000000000000000000000000000CA
:100234008A9589F70895282F8AEFEDDF8AEFEBDF9F
:100244008AEFE9DF8AEFE7DF2A95B1F708958AEFAD
:10025400F2DF8AEFF0DF8AEFEEDF8AEFECDF08955A
:10026400382FF5DF3A95E9F7089500000000000003
:10027400005F00000007000700147F147F14242A85
:100284007F2A12231308646236495522500005035D
:100294000000001C2241000041221C0014083E08FA
:1002A4001408083E08080050300000080808080830
:1002B400006060000020100804023E5149453E00E1
:1002C400427F400042615149462141454B31181457
:1002D400127F1027454545393C4A49493001710987
:1002E40005033649494936064949291E0036360070
:1002F400000056360000081422410014141414148B
:1003040000412214080201510906324979413E7E16
:100314000909097E7F494949363E414141127F41DD
:1003240041413E7F494949417F090909013E41490B
:10033400497A7F0808087F00417F41002040413FFF
:10034400017F081422417F404040407F020C027F1D
:100354007F0408107F3E4141413E7F090909063E62
:100364004151215E7F091929464649494931010114
:100374007F01013F4040403F1F2040201F3F403845
:10038400403F631408146307087008076151494526
:10039400430057454C434F4D4521000050524553AF
:1003A400533A20202020202020203220544F205255
:1003B4004F4C4C202020202000003320544F205349
:1003C400484F57205354415400003820544F204381
:1003D4004C5220205354415400003920464F52209F
:1003E4004D4F4E49544F5200524F4C4C494E472E9C
:1003F4002E2E000056414C55453A20000091040031
:10040400006704B90091010100660093010184E1D1
:1004140012DF2D9A8AE00FDF2E9A2C9881E231D0D8
:100424002C9883E12ED02C9886EC2BD02C9886E047
:1004340028D02C9880E225D02C988CE022D00895E6
:100444008591803041F0EF93FF938F9305D08F9186
:10045400FF91EF91F5CF0895082F005215E0019F09
:10046400F2E0EEE6E00DF11D85910BD0859109D007
:10047400859107D0859105D0849103D080E001D087
:1004840008952E98082F20E010E81023103031F43E
:10049400809102018F7B8093020105C0809102014B
:1004A4008064809302018091020180628093020142
:1004B400A9DE809102018F7D80930201A3DE000FEB
:1004C4002395283009F72E9A08952C9880E4D9DFD3
:1004D4002C9880E8D6DF9EE02C9A80E2BDDF9A95C6
:1004E400D9F72C9881E4CDDF2C9880E8CADF9EE010
:1004F4002C9A80E2B1DF9A95D9F72C9882E4C1DF77
:100504002C9880E8BEDF9EE02C9A80E2A5DF9A95C5
:10051400D9F72C9883E4B5DF2C9880E8B2DF9EE00D
:100524002C9A80E299DF9A95D9F72C9884E4A9DF74
:100534002C9880E8A6DF9EE02C9A80E28DDF9A95C5
:10054400D9F72C9885E49DDF2C9880E89ADF9EE00B
:100554002C9A80E281DF9A95D9F70895F3E0E6E9D1
:100564008591803041F0EF93FF938F9375DF8F91E6
:10057400FF91EF91F5CF08954D4F4E49544F5200DE
:100584000895B7DD7A3249F0733239F0703111F4DD
:10059400372EF7CF7315A9F3372E08958EE35CDF5A
:1005A4007B2F55D07A2F53D08AE356DF08958DDF01
:1005B400F5E0ECE745DF4BDEB0E0A0E086DFEEDF00
:1005C4007D9145D0DEDF7A3249F0733221F07053E9
:1005D400B72FAA27F3CF78EC2EDEF0CF0895434C43
:1005E400454152494E472E2E2E005448524F5753E0
:1005F4003A004E4252204F46203127533A004E4291
:1006040052204F46203227533A004E4252204F4642
:10061400203327533A004E4252204F46203427536A
:100624003A004E4252204F46203527533A004E425C
:1006340052204F46203627533A007CD0089530315B
:100644003233343536373839414243444546F6E08F
:10065400E2E4572E72957F70E70F6624F61D8491AD
:10066400FBDE752D7F70F6E0E2E4E70F6624F61DED
:100674008491F2DE089529DFF5E0EEEEE1DE70E02C
:1006840052D0E5DFE4DD21DFF5E0E6EFD9DE71E00D
:100694004AD0DDDFDCDD19DFF6E0E2E0D1DE72E036
:1006A40042D0D5DFD4DD11DFF6E0EEE0C9DE73E041
:1006B4003AD0CDDFCCDD09DFF6E0EAE1C1DE74E05B
:1006C40032D0C5DFC4DD01DFF6E0E6E2B9DE75E075
:1006D4002AD0BDDFBCDDF9DEF6E0E2E3B1DE76E090
:1006E40022D0B5DFB4DDF1DE0895EFDEF5E0E2EE11
:1006F400A7DE20D0089506E0000000000F9307DD78
:100704000F91723309F008950A95A9F3F5CFB2E079
:10071400A0E00C9103950C93A70F70E0B71F0C9108
:1007240003950C930895B2E0A0E0A70F70E0B71F03
:100734007C910895B2E0A0E000E00D930D930D9339
:100744000D930D930D930C9308950FEF0DBF01E2DC
:100754000EBF04D053DE71DF13DF16C000E203BB0B
:1007640008E00DB9009101010860009301010091B6
:1007740001010061009301010091020100BB8D9A07
:100784008C9A749A759A0895A0DEE8DE83E068DD99
:100794009CDEF3E0E0EA54DEF3E0EEEB51DEF3E05E
:1007A400EEEC4EDEF3E0EEED4BDEA3DC872F72338E
:1007B40039F07333C1F07833C1F07933C1F0E4CF49
:1007C40084DEF3E0ECEE3CDE96DF702F0F939FDFC8
:1007D4007CDEF3E0E8EF34DE0F91005D802F3CDE39
:1007E40081E03EDDD1CF47DFCFCFA4DFCDCFDFDE49
:0207F400CBCF69
:00000001FF
