:020000020000FC
:0200000055C2E7
:1000E400585858585858585858585858585858588C
:1000F4001000089510E0A59A739800910201077FFB
:1001040000930201009102010F7E0093020100009E
:100114007D995BC013957C9958C0139564990C9490
:10012400E700139565990C94E7001395A598739AC5
:10013400077F00930201009102010F7E00930201E8
:1001440000007D9942C013957C993FC01395649932
:100154000C94E700139565990C94E7001395A59802
:10016400739800910201086000930201009102015A
:100174000F7E0093020100007D9927C013957C999E
:1001840024C0139564990C94E700139565990C9415
:10019400E7001395A598739800910201077F0093D7
:1001A40002010091020100610093020100007D99A7
:1001B4000CC013957C9909C0139564990C94E700BD
:1001C400139565990C94E7001395089500000000B9
:1001D400000000000000000000000000089500007E
:1001E400000000000000000000000000000000000B
:1001F4000000000000000000000000008A9579F76C
:100204000895282F8AEFEBDF8AEFE9DF8AEFE7DF33
:100214008AEFE5DF2A95B1F708958AEFF2DF8AEFD6
:10022400F0DF8AEFEEDF8AEFECDF0895382FF5DF99
:100234003A95E9F70895000000000000005F00000F
:100244000007000700147F147F14242A7F2A122336
:100254001308646236495522500005030000001C4F
:100264002241000041221C0014083E081408083EE4
:100274000808005030000008080808080060600002
:100284000020100804023E5149453E00427F4000D0
:1002940042615149462141454B311814127F1027C0
:1002A400454545393C4A49493001710905033649F8
:1002B400494936064949291E00363600000056369B
:1002C40000000814224100141414141400412214D0
:1002D400080201510906324979413E7E0909097E25
:1002E4007F494949363E414141127F4141413E7F68
:1002F400494949417F090909013E4149497A7F0831
:1003040008087F00417F41002040413F017F0814DD
:1003140022417F404040407F020C027F7F0408104E
:100324007F3E4141413E7F090909063E4151215E1C
:100334007F09192946464949493101017F01013F95
:100344004040403F1F2040201F3F4038403F63143F
:100354000814630708700807615149454300009178
:100364000400006704B900910101006600930101D3
:1003740084E147DF2D9A8AE044DF2E9A2C9881E2AB
:1003840026D02C9883E123D02C9886EC20D02C986E
:1003940086E01DD02C9880E21AD02C988CE017D0DF
:1003A40008950895082F005215E0019FF2E0EAE352
:1003B400E00DF11D85910BD0859109D0859107D071
:1003C400859105D0849103D080E001D008952E98C2
:1003D400082F20E010E81023103031F4809102013E
:1003E4008F7B8093020105C0809102018064809319
:1003F400020180910201806280930201E7DE809114
:1004040002018F7D80930201E1DE000F23952830E5
:1004140009F72E9A08952C9880E4D9DF2C9880E867
:10042400D6DF9EE02C9A80E2BDDF9A95D9F72C980E
:1004340081E4CDDF2C9880E8CADF9EE02C9A80E22C
:10044400B1DF9A95D9F72C9882E4C1DF2C9880E823
:10045400BEDF9EE02C9A80E2A5DF9A95D9F72C980E
:1004640083E4B5DF2C9880E8B2DF9EE02C9A80E22A
:1004740099DF9A95D9F72C9884E4A9DF2C9880E821
:10048400A6DF9EE02C9A80E28DDF9A95D9F72C980E
:1004940085E49DDF2C9880E89ADF9EE02C9A80E228
:1004A40081DF9A95D9F708950FEF0DBF01E20EBFD2
:1004B40002D055DF1AC000E804B94FE04AB900E29F
:1004C40003BB08E00DB9009101010860009301012C
:1004D400009101010061009301010091020100BB40
:1004E4008D9A8C9A749A759A089595DF2C9880E861
:1004F4006EDF2C9880E46BDF2C9A8BE453DF2C9A0C
:1005040085E450DF2C9A89E54DDF2C9A8AE34ADF93
:100514002C9880E85CDF2C9881E459DFA0E0EADDC8
:10052400A117E9F31031D9F3A12F29E300E3010F57
:10053400201720F02C9A802F35DFF1CF095FFACFF6
:00000001FF
