:1000000071C000008EC000008CC000008AC00000DB
:1000100088C0000086C0000084C0000082C00000CC
:1000200080C000007EC000007CC000007AC00000DC
:1000300078C0000076C0000074C0000072C00000EC
:1000400070C000006EC000006CC000006AC00000FC
:1000500068C0000066C0000064C0000062C000000C
:1000600060C000005EC000005CC000005AC000001C
:1000700058C0000056C0000054C0000052C000002C
:1000800050C000004EC000004CC000004AC000003C
:1000900048C0000046C0000044C0000042C000004C
:1000A00040C000003EC000003CC000003AC000005C
:1000B00038C0000036C0000034C0000032C000006C
:1000C00030C000002EC000002CC000002AC000007C
:1000D00028C0000026C0000024C0000022C000008C
:1000E00020C0000011241FBECFEFD1E2DEBFCDBF84
:1000F00000E00CBF13E0A0E0B2E0E0E7FEE000E0CB
:100100000BBF02C007900D92AC3CB107D9F723E0BA
:10011000ACECB3E001C01D92AC3CB207E1F79BD15F
:10012000A5C66ECF00000000000000000000000027
:100130000000000008950000000000000000000022
:1001400000000000000000000000000000000000AF
:100150008A9589F70895282F8AEFEDDF8AEFEBDF84
:100160008AEFE9DF8AEFE7DF2A95B1F708958AEF92
:10017000F2DF8AEFF0DF8AEFEEDF8AEFECCF08954F
:10018000382FF5DF3A95E9F70895CF93DF931F9263
:100190001F92CDB7DEB7BE016F5F7F4F84E092E064
:1001A000D4D0882339F089819A81009719F0853657
:1001B000910538F041E063E172E084E092E030D1F3
:1001C000EACF0F900F90DF91CF9108950F931F9377
:1001D000CF93DF938C01EB01D8DF28812F5F30E0D4
:1001E000398328838017910741F441E061E272E08E
:1001F00082E292E015D180E012C08017910740F4AE
:1002000041E061E272E082E392E00AD181E007C05E
:1002100041E061E272E08BE392E002D181E0DF91A4
:10022000CF911F910F910895EF92FF920F931F931B
:10023000CF93DF93CDB7DEB761970FB6F894DEBFEB
:100240000FBECDBF8C011F938F9385E492E09F93E7
:100250008F93CE0101967C019F938F93CFD243E081
:1002600061E272E0C701DCD00F900F900F900F9009
:100270000F900F900830110538F443E061E272E00E
:1002800081E592E0CDD006C043E06BE572E088E600
:1002900092E0C6D061960FB6F894DEBF0FBECDBF18
:1002A000DF91CF911F910F91FF90EF9008950F93E1
:1002B0001F93CF93DF931F921F92CDB7DEB78C01B0
:1002C0001A82198243E064E772E080E892E0A8D0E5
:1002D000BE016F5F7F4FC80179DF8111F9CF89813E
:1002E0009A81A2DF0F900F90DF91CF911F910F9114
:1002F0000895CF93DF93EC01615021E030E0E0E01E
:10030000F0E0DE01A60FB11D9C919053929FD001A9
:10031000939FB00D1124EA0FFB1FD901AA0FBB1F39
:10032000220F331F220F331F220F331F2A0F3B1FB1
:10033000662311F06150E5CFDA01ED93FC93DF9174
:10034000CF91089542D1EBC00895EF92FF920F93A1
:100350001F93CF93DF9300D01F92CDB7DEB78C01F0
:100360007B010BD160E080E013D1C80121D160E0B6
:1003700081E00ED100E044D1182F8823E1F38332CD
:10038000A9F18A3269F4002369F10150602F81E0FC
:10039000FFD060E281E09BD0602F81E0F9D022C0E5
:1003A000033000F521E09FEB980F923008F420E035
:1003B00081E0133409F480E091E0143409F490E012
:1003C000822381F0992371F0612F81E080D0E1E0F8
:1003D000F0E0EC0FFD1FE00FF11D10830F5F02C076
:1003E00088ECB9DE0DD18111FBCFC5CFE1E0F0E0A3
:1003F000EC0FFD1FE00FF11D1082002329F0A70173
:10040000602FCE01019675DF802F0F900F900F9017
:100410000F90DF91CF911F910F91FF90EF90089572
:10042000EF92FF920F931F93CF937C018B01C42F08
:10043000A4D060E080E0ACD0C701BAD060E081E039
:10044000A7D0C801B5D08C2F9BDECF911F910F9103
:10045000FF90EF90089576DF8FEF90E0C4D143E0F6
:100460006EE872E08CE992E0DBDFBAD165E670E01D
:1004700049D11DDFFACF0F931F93CF93DF93082F3E
:1004800085B18F7B85B910E018C0002334F4E2E019
:10049000F1E080818064808305C0E2E0F1E080814A
:1004A0008F7B8083C2E0D1E08881806288833ADEDE
:1004B00088818F7D8883000F1F5F183030F385B1EE
:1004C000806485B9DF91CF911F910F910895CF93EB
:1004D000DF93811106C085B18F7E85B9862FCBDF72
:1004E0001BC085B1806185B9D0EED60FC0E010C0C9
:1004F0002D2F30E0F901EE0FFF1FEE0FFF1FE20F6F
:10050000F31FEB55FD4FEC0FF11D8081B4DFCF5F82
:10051000C53070F380E0AFDFDF91CF910895E1E067
:10052000F1E080818062808380818064808384B1F7
:10053000806184B984B1806284B984B1806484B9F3
:1005400084E109DE85B1806285B98AE004DE85B187
:10055000806485B961E280E0BADF63E180E0B7DF03
:1005600065EC80E0B4DF64E080E0B1DF60E280E071
:10057000AEDF6CE080E0ABCF0895CF93C0E004C065
:1005800060E281E0A4DFCF5FC435D0F3CF9108955E
:10059000CF93C62F682F606480E099DF8C2F880F7F
:1005A000C80F6C2F660F606880E091DFCF910895CF
:1005B000CF93DF93EC0103C081E089DF219668814E
:1005C0006111FACFDF91CF91089583B3806283BB2D
:1005D0008DB188608DB9E1E0F1E080818860808331
:1005E00080818061808380B38F7D80BB80B38F7E6C
:1005F00080BB8DB18F7E8DB98DB18F7D8DB9089502
:1006000084B3806284BB8EB1877F8EB9E2E0F1E073
:100610008081877F808380818F7E808381E09BDDE6
:100620007D9950C07C9950C0649950C0659950C064
:1006300084B38F7D84BB8EB188608EB9E2E0F1E037
:100640008081877F808380818F7E808381E083DDCE
:100650007D9940C07C9940C0649940C0659940C074
:1006600084B38F7D84BB8EB1877F8EB9E2E0F1E0E9
:1006700080818860808380818F7E808381E06BDDD4
:100680007D9930C07C9930C0649930C0659930C084
:1006900084B38F7D84BB8EB1877F8EB9E2E0F1E0B9
:1006A0008081877F808380818061808381E053DDCA
:1006B0007D9920C07C9920C0649920C0659B20C092
:1006C00084E4089581E3089584E3089587E3089519
:1006D0008AE2089582E3089585E3089588E3089502
:1006E00080E3089583E3089586E3089589E30895F8
:1006F00083E2089581E4089582E4089583E40895EF
:1007000080E0089597FB072E16F4009406D077FD3D
:1007100008D00BD007FC05D03EF4909581959F4FF3
:100720000895709561957F4F0895AA1BBB1B51E1F9
:1007300007C0AA1FBB1FA617B70710F0A61BB70B51
:10074000881F991F5A95A9F780959095BC01CD01F6
:1007500008958F929F92AF92BF92CF92DF92EF92C5
:10076000FF92CF93DF93EC01688179818A819B812D
:10077000611571058105910521F464E279ED8BE540
:1007800097E02DE133EF41E050E013D349015A01E6
:100790009B01AC01A7EAB1E428D36B017C01ACEE6C
:1007A000B4EFA50194012DD3DC01CB018C0D9D1D6F
:1007B000AE1DBF1DB7FF03C00197A109B0488883D4
:1007C0009983AA83BB839F77DF91CF91FF90EF90AE
:1007D000DF90CF90BF90AF909F908F900895B9CF4A
:1007E00080E092E0B6CFA0E0B0E08093000290936A
:1007F0000102A0930202B093030208950F931F9386
:10080000CF93DF93CDB7DEB72E970FB6F894DEBF48
:100810000FBECDBF0E891F8986E08C831A830983A2
:100820008FEF9FE79E838D83AE01465E5F4F688D9D
:10083000798DCE01019610D0EF81F885E00FF11F80
:1008400010822E960FB6F894DEBF0FBECDBFDF919B
:10085000CF911F910F9108952F923F924F925F92E7
:100860006F927F928F929F92AF92BF92CF92DF92C0
:10087000EF92FF920F931F93CF93DF93CDB7DEB725
:100880002B970FB6F894DEBF0FBECDBF6C017B0176
:100890008A01FC0117821682838181FFBFC1CE01CC
:1008A00001963C01F6019381F70193FD859193FF39
:1008B00081917F01882309F4ADC1853239F493FD1C
:1008C000859193FF81917F01853221F4B60190E0FB
:1008D000D6D1E8CF912C212C312CFFE1F315D8F0A3
:1008E0008B3279F038F4803279F08332A1F4232D01
:1008F00020611DC08D3261F0803369F4232D2160A9
:1009000016C0832D8260382EE32DE4603E2E2AC06F
:10091000F32DF8601DC037FC2DC020ED280F2A30C4
:1009200040F08E32B9F436FC75C1232D2064322E8E
:1009300019C036FE06C08AE0989E200D1124922E22
:1009400011C0EAE02E9E200D1124222EF32DF0621C
:100950003F2E08C08C3621F4832D8068382E02C0CB
:10096000883641F4F70193FD859193FF81917F01D2
:100970008111B3CF982F9F7D9554933028F40C5F4D
:100980001F4F9FE399830DC0833631F0833771F099
:10099000833509F055C020C0F801808189830E5F3E
:1009A0001F4F88248394912C530112C02801F2E038
:1009B0004F0E511CF801A080B18036FE03C0692D96
:1009C00070E002C06FEF7FEFC5014ED14C01820194
:1009D000F32DFF773F2E15C0280122E0420E511C57
:1009E000F801A080B18036FE03C0692D70E002C01E
:1009F0006FEF7FEFC5012DD14C01F32DF0683F2E35
:100A0000820133FC19C0822D90E088169906A0F46B
:100A1000B60180E290E033D12A94F5CFF50137FC9E
:100A2000859137FE81915F01B60190E028D12110B8
:100A30002A9421E0821A91088114910479F7E1C087
:100A4000843611F0893639F5F80137FE07C0608128
:100A50007181828193810C5F1F4F08C06081718119
:100A6000072E000C880B990B0E5F1F4FF32DFF769E
:100A70003F2E97FF09C090958095709561957F4FA7
:100A80008F4F9F4FF0683F2E2AE030E0A30133D113
:100A9000882E861844C0853731F4232D2F7EB22E40
:100AA0002AE030E025C0932D997FB92E8F36C1F012
:100AB00018F4883579F0AEC0803719F0883721F006
:100AC000A9C0E92FE061BE2EB4FE0DC0FB2DF4607D
:100AD000BF2E09C034FE0AC0292F2660B22E06C0E0
:100AE00028E030E005C020E130E002C020E132E043
:100AF000F801B7FE07C060817181828193810C5F2C
:100B00001F4F06C06081718180E090E00E5F1F4F33
:100B1000A301F1D0882E8618FB2DFF773F2E36FEDD
:100B20000DC0232D2E7FA22E891458F434FE0BC045
:100B300032FC09C0832D8E7EA82E05C0B82CA32CB4
:100B400003C0B82C01C0B92CA4FE0FC0FE01E80DF3
:100B5000F11D8081803321F49A2D997EA92E09C040
:100B6000A2FE06C0B394B39404C08A2D867809F01F
:100B7000B394A3FC10C0A0FE06C0B21480F4280CED
:100B8000922C9B180DC0B21458F4B60180E290E08C
:100B900076D0B394F8CFB21418F42B1802C0982C66
:100BA000212CA4FE0FC0B60180E390E068D0A2FE25
:100BB00016C0A1FC03C088E790E002C088E590E081
:100BC000B6010CC08A2D867851F0A1FE02C08BE2DE
:100BD00001C080E2A7FC8DE2B60190E050D08914FC
:100BE00030F4B60180E390E04AD09A94F8CF8A942A
:100BF000F301E80DF11D8081B60190E040D0811035
:100C0000F6CF222009F44ECEB60180E290E037D034
:100C10002A94F7CFF6018681978102C08FEF9FEF6C
:100C20002B960FB6F894DEBF0FBECDBFDF91CF91EC
:100C30001F910F91FF90EF90DF90CF90BF90AF90FA
:100C40009F908F907F906F905F904F903F902F90EC
:100C50000895FC010590615070400110D8F780950F
:100C600090958E0F9F1F0895FC0161507040019078
:100C70000110D8F7809590958E0F9F1F08950F93C0
:100C80001F93CF93DF93FB01238121FD03C08FEFDF
:100C90009FEF2CC022FF16C04681578124813581E9
:100CA0004217530744F4A081B1819D012F5F3F4F4C
:100CB000318320838C93268137812F5F3F4F378389
:100CC000268314C08B01EC01FB010084F185E02D2B
:100CD0001995892BE1F6D80116968D919C9117975D
:100CE000019617969C938E931697CE01DF91CF9124
:100CF0001F910F910895FA01AA27283051F1203150
:100D000081F1E8946F936E7F6E5F7F4F8F4F9F4F9F
:100D1000AF4FB1E03ED0B4E03CD0670F781F891FE1
:100D20009A1FA11D680F791F8A1F911DA11D6A0FAF
:100D3000711D811D911DA11D20D009F468943F9162
:100D40002AE0269F11243019305D3193DEF6CF0161
:100D50000895462F4770405D4193B3E00FD0C9F727
:100D6000F6CF462F4F70405D4A3318F0495D31FD94
:100D70004052419302D0A9F7EACFB4E0A6959795E7
:100D8000879577956795BA95C9F7009761057105BD
:100D900008959B01AC010A2E069457954795379507
:100DA0002795BA95C9F7620F731F841F951FA01D61
:100DB0000895052E97FB16F400940FD057FD05D02B
:100DC00024D007FC02D046F408C0509540953095D9
:100DD00021953F4F4F4F5F4F0895909580957095A7
:100DE00061957F4F8F4F9F4F089531D0A59F900DF4
:100DF000B49F900DA49F800D911D11240895B7FFFD
:100E0000F4CFF3DF821B930B0895A1E21A2EAA1BE5
:100E1000BB1BFD010DC0AA1FBB1FEE1FFF1FA217AA
:100E2000B307E407F50720F0A21BB30BE40BF50BA7
:100E3000661F771F881F991F1A9469F76095709530
:100E4000809590959B01AC01BD01CF010895A29FB3
:100E5000B001B39FC001A39F700D811D1124911D8E
:100E6000B29F700D811D1124911D0895F894FFCF3C
:100E700001000000454E5445522041204E554D4240
:100E80004552004245545745454E20312D313030B2
:100E90002100434F5252454354204E554D42455236
:100EA0002100544F4F204C4F572100544F4F2048A2
:100EB0004947482100475545535345533A20257526
:100EC00000474F4F44204A4F4221004E455854207E
:100ED00054494D452E2E2E00424554544552204C27
:100EE00055434B00544845204E554D4245523F0016
:100EF00043414E20594F55204755455353004C45CB
:100F000054275320504C41592E2E2E0057454C4308
:100F10004F4D452100000000000000005F00000070
:100F200007000700147F147F14242A7F2A1223133A
:100F300008646236495522500005030000001C2257
:100F400041000041221C0014083E081408083E0815
:100F50000800503000000808080808006060000021
:100F600020100804023E5149453E00427F400042A5
:100F7000615149462141454B311814127F102745D4
:100F80004545393C4A49493001710905033649490B
:100F90004936064949291E003636000000563600FB
:100FA00000081422410014141414140041221408DF
:100FB0000201510906324979413E7E1111117E7FAD
:100FC000494949363E414141227F4141221C7F49E6
:100FD0004949417F090909013E4149497A7F080889
:100FE000087F00417F41002040413F017F081422DB
:100FF000417F404040407F020C027F7F0408107F09
:101000003E4141413E7F090909063E4151215E7F33
:1010100009192946464949493101017F01013F40EB
:1010200040403F1F2040201F3F4038403F6314088E
:0C1030001463070870080761514945432C
:00000001FF
